:060000006FC04DC562C592
:10000600FCCFFBCFFACF6EC5F8CF80C5F6CFF5CFC4
:100016007AC4F3CFF2CFF1CFF0CFEFCFEECFEDCF63
:100026000000000080C054E3253DA2E73BB60AD796
:10003600233CACC5A7384F4B0A00412564422564D2
:1000460043256444256445256446256447256C6438
:100056004825644925644A25644B25645A0A0044A8
:100066003132333435363738393031323334353648
:1000760037383930313233343536373839300A008B
:100086004C25645A0A005425645A0A005025645ABD
:100096000A00570A00530A003031323334353637F6
:1000A6003839306162636465666768696A6B6C6D6E
:1000B6006E6F707172737475767778797A0D0A003F
:1000C60001002D4E414E00494E460000020002003E
:1000D60026000100FF01C6000000F894EE27ECBBE5
:1000E600F1E0FBBFEBBFE5BFF8E1F1BDE1BD8DE09F
:1000F600A2E0BB27ED938A95E9F780E094E0A0E6BD
:10010600ED930197E9F7E2EDF0E08591959100977F
:1001160061F0A591B59105901590BF01F00105908C
:100126000D920197E1F7FB01F0CFEFE5EDBFE4E0BB
:10013600EEBFC0E6D1E0F5C4D2D8AFE0D8DAA0E091
:1001460004C0CDD8AEE0D3DAA6E0D1DAABDA0895B2
:10015600AA93C5D8ABE0C6D8EF77C7D8A9818ED801
:10016600EF77C3D8A0E8C3DA9DDA22960895AA935A
:10017600B6D8A0E0B7D8B9D8A98180D8B6D8AA8110
:100186007DD8B3D88FDACCC6BA93AA93A8D8A0E004
:10019600AED8A881B981B3D8AC81BD81EC9382DA9F
:1001A60098C3B9D89CD8A4E0A2D8AC81BD81A7D801
:1001B600A881B981EC9376DA8CC3AA9390D8A4E08F
:1001C60096DAAA815BD891D8A98158D8AE2F8AD859
:1001D6008CD868DAA5C6AA9376DD00E0A29A10E864
:1001E600113050F0EA81E12311F0AA9A01C0AA98D1
:1001F60095D8AB9898D8F4CFAA9AA2988FD8E0E071
:100206009A99E1E00E2F96D8E02F64DD89C6AA936D
:100216005ADD00E0A29810E8113030F07FD89A99A4
:10022600012B88D880D8F8CFA29AEA81E03011F065
:10023600AA9801C0AA9A72D8AB98AA9AE02F4ADD6A
:100246006FC6A29AAA9A7BD869D8AA9873D881E071
:100256008A95F1F763D8AA9A6DD8A29808951A9349
:10026600A29AAA9AAB9810E0193020F457D867D80A
:100276001F5FFACFE6DFA298199108954CD81A931A
:1002860010E0DFDFA7E0A7DF1E2F5ED8AB81BC81C1
:10029600EC93A0E0BCDFA981BA81EC93E12F188131
:1002A60025960895AA930DDD00E010E04FD8C9DF2A
:1002B60050D819F4A3E051D804C054D811F4A5E0DD
:1002C6004CD8A6989A9B01C0FDCF9A9B02C00F5F9F
:1002D6001F4F3FD8B9F43AD837D848D8322F2227FB
:1002E600209360013093610131D82ED83FD8F901AF
:1002F600A0916001B09161013CD8E0936001F09358
:10030600610115C02FD899F421D81ED82FD8322FC5
:100316002227E2E6F1E02083318318D815D826D8C3
:100326002BD8E22BF32BE0936201F0936301A0E05C
:100336006EDFAD81BE81EC93E02FCADC279608956F
:10034600EAD72C97AC85BD858FDC1BD8E2DA1ED8A0
:10035600E0E0F0E060E272E4A1DC84DA95DC19D832
:10036600A2EAB7EE8BE396EBD4DAAE85BF85888931
:100376009989CFDA7F936F93FF93EF930AD8A4E519
:10038600B3EE85E29DE3C5DAAF91BF918F919F9160
:1003960070DAA0E0B0E080E890EC6BDAFFD703D823
:1003A600A0E0B0E088EC91E45DDA7F936F93FF9371
:1003B600EF93EFD7ACEAB5EC87EA98E3AADAE1D790
:1003C60058DAAF91BF918F919F91A3DAEED751DAA8
:1003D600F1D7F5D7F9D730DB09F008F402C0F4D726
:1003E600E9D7EDD7F6D728DB10F4F3D7E3D7DBD779
:1003F600AC85BD85F3D7629608958DD7289761DCC5
:100406002EDF10E0EDB7FEB7EFD70F93A1E04ADF7E
:100416000F911E0FEDB7FEB7E7D70F93A0E042DFAF
:100426000F911E0FEDB7FEB7DFD73F93ADB7BEB73F
:100436000F9324DF0F913F911E0F103011F00FDF45
:100446000FC09AD7D4D7AAD7E0916001F091610185
:10045600CED7B0D7D0D71DDCDE01189671DF9ED778
:10046600CAD7AE85BF85BAD7AC85BD8503DC30DC7F
:1004760060960895C5D7AAEAC6D7CBD7E0939C0164
:10048600F0939D01C8D7E0939E01F0939F01C3D7D7
:10049600E093A001F093A101BED7E093A201F093EF
:1004A600A301B9D7E093A401F093A501B4D7E093D3
:1004B600A601F093A701AFD7E093A801F093A90195
:1004C600AAD7E093AA01F093AB01A5D7E093AC01BC
:1004D600F093AD01A0D7E093AE01F093AF019BD7A7
:1004E600E093B001F093B10196D7E093B201F09397
:1004F600B30191D7E093B401F093B5018CD7E093A3
:10050600B601F093B70187D7E093B801F093B9012C
:1005160082D7E093BA01F093BB017DD7E093BC018B
:10052600F093BD0178D7E093BE01F093BF0173D776
:10053600E093C001F093C1016ED7E093C201F0933E
:10054600C30169D7E093C401F093C501A0E0B4D814
:1005560060D7E093C601F093C701A4D8F0919C013F
:10056600E0E0A0919E01B0919F0103D72F01F09189
:10057600A001E0E0A091A201B091A301FAD63F014B
:10058600F091A401E0E0A091A601B091A701F1D6F7
:100596004F01F091A801E0E0A091AA01B091AB0152
:1005A600E8D6E0936A01F0936B01F091AC01E0E0CC
:1005B600A091AE01B091AF01DCD6E0936C01F0934F
:1005C6006D01F091B001E0E0A091B201B091B301EC
:1005D600D0D6E0936E01F0936F01F091B401E0E0A4
:1005E600A091B601B091B701C4D65F01F091B801F0
:1005F600E0E0A091BA01B091BB01BBD66F01F091CA
:10060600BC01E0E0A091BE01B091BF01B2D6E0937B
:100616006401F0936501F091C001E0E0A091C20190
:10062600B091C301A6D6E0936601F0936701F091FD
:10063600C401E0E0A091C601B091C7019AD6E0934B
:100646006801F093690108953EDBDAD6A4EF4FD82E
:10065600AEE2E4D6A6EFD7D6E7D6E0939401F093C0
:1006660095016093960170939701E0916E01F09168
:100676006F01A0919401B09195018091960190919E
:100686009701E3D60CDAE0916C01F0916D01DDD6AD
:10069600DFD6EFE0DFD6A0916601B0916701E4D620
:1006A600EBE013DA7F936F93FF93EF93E09168018A
:1006B600F0916901DBD6E3D6E3D9AF91BF918F9173
:1006C6009F91A4DADED6E0937801F09379016093E6
:1006D6007A0170937B0101DB08952497F4DA90D6B2
:1006E600A4EF05D8A4E39AD6A6EF8DD69DD6E093BF
:1006F6009001F09391016093920170939301E091C0
:100706007801F091790160917A0170917B01E05A4C
:10071600FF4060407040E0938401F0938501609350
:10072600860170938701B8D6C0D62EDAD6019CD63C
:100736008FD6ECE0D6D92AD6EBE08CD6ADD6D3014F
:1007460093D686D6EBE0CDD99CD6B8D6D2018CD638
:10075600E4E0F0E060E070E017DAA0918001B0918B
:10076600810180918201909183018FD9FD01BC01A5
:10077600AED6E0937C01F0937D0160937E01709389
:100786007F018AD6D40170D663D6EDE063D684D6CF
:100796008CD65ED6ECE0A5D9D50166D6F5D9C3D9F7
:1007A60070D695D68BD6E0918001F091810160914B
:1007B600820170918301E050F0486F4F7F4FA09106
:1007C6006A01B0916B0188279927BED9DFD5EFE082
:1007D60094D9E0938C01F0938D0160938E01709310
:1007E6008F01A0917C01B0917D0180917E01909155
:1007F6007F01E0919001F0919101609192017091D9
:10080600930148D9A0E5B3EC80E090E09DD9E09350
:100816008801F093890160938A0170938B015ED6FB
:10082600A030E0E0BE07E0E08E07E0E89E0770F447
:10083600E0918801F091890160918A0170918B01A4
:100846006DD9DF01CB0153D6BCD904C050D646D6EC
:10085600B8D964D9EA83FB836C837D8351D67F93B1
:100866006F93FF93EF934CD6AF91BF918F919F916A
:100876008BD94DD6E0917001F091710160917201B2
:1008860070917301AEEDBBE080E090E07DD94BD96D
:100896003ED6EA81FB816C817D81A3E4B3EE8FEFC6
:1008A6009FEF72D940D9EDD5E153F14F6F4F7F4F8E
:1008B6006DD5E4E016D9AA81BB818C819D81E0D8F3
:1008C600E0939801F093990160939A0170939B01CC
:1008D60001DA2696089501DFE0919801F0919901D9
:1008E60060919A0170919B010895AA93E881E06452
:1008F600E7B986E08A95F1F7369A349BFECF349AAB
:10090600E4B1F5B105C30CD61A931CB1E091C80148
:1009160080D5309729F41F3F11F4E1E00FD6BAC015
:1009260021D589F51F3F11F4E1E02AC0113621F4E3
:10093600E0E007D620F826C0123611F4E2E020C027
:10094600133621F4E8E0FDD527F81CC0143611F45F
:10095600E9E016C0153621F4689422F821F812C091
:10096600163621F4E8E0EDD531F80CC0173621F43F
:10097600E8E0E7D532F806C0183621F4E5D5E0E020
:10098600E093C80187C0E230A0E0FA0751F41F3FA8
:1009960011F4E1E003C01093E601E3E0E093C8013F
:1009A60079C0E330A0E0FA0751F41F3F11F4E1E00B
:1009B60003C01093E701E4E0E093C8016BC0E430A4
:1009C600A0E0FA0751F41F3F11F4E1E003C01093D1
:1009D600E801E5E0E093C8015DC0E530A0E0FA0774
:1009E60051F41F3F11F4E1E003C01093E901E6E082
:1009F600E093C8014FC0E630A0E0FA0751F41F3F6C
:100A060011F4E1E003C01093EA01E7E0E093C801C6
:100A160041C0E730A0E0FA0761F41F3F11F4E1E0BE
:100A260005C01093EB01689425F8E0E0E093C80157
:100A360031C0E830A0E0FA0781F41F3F11F4E1E08D
:100A460009C01B3449F4689430F832FE02C0E8E06D
:100A560001C0E0E0E093C8011DC0E930A0E0FA075C
:100A660051F41F3F11F4E1E003C01093EC01EAE0FA
:100A7600E093C8010FC0EA30A0E0FA0759F41F3F1F
:100A860011F4E1E005C01093ED01689426F8E0E06A
:100A9600E093C801199108C043D55DD5EABFFCD3E0
:100AA600979A4ADBE1E05AD5E991EFBFF991E991CE
:100AB600B991A9919991899179916991F990199032
:100AC60009901895AA93BA93EA93FA93EFB7EA9323
:100AD600AEECB1E046D5E991EFBFF991E991B99154
:100AE600A9911895EA93FA93EFB7EA93E091CE01AC
:100AF600F091CF01E093D001F093D10138D56894FD
:100B060024F8E991EFBFF991E9911895EA93EFB7C7
:100B1600EA93E091CB01EF5F30D5E991EFBFE99120
:100B2600189510E0E0E0EBB9E8E9EAB9E6E8E0BDDF
:100B3600E0E0E0BDEBE0E9B9E0E8E8B9A39A8F9A16
:100B4600979A9CD5AAE01CD595DCFBDA929A939AE3
:100B5600F3DAE7E0EEBD789415D5E091C90159D4F2
:100B6600309709F520FE02C0E2E0F8D426FE02C066
:100B7600E3E0F4D425FE02C0E5E0F0D427FE02C08F
:100B8600E6E0ECD431FE02C0E7E0E8D422FE02C083
:100B9600E1E0E4D431FE02C0E7E0E0D432FE02C078
:100BA600E8E0DCD4AEC1E230A0E0FA0709F0A3C069
:100BB600ECB5FDB5E093CC01F093CD01EDE0EEBDD3
:100BC600E7E0EBBDEABDE0E1E9BFE0E8EBBFE8E066
:100BD600E5BFE0E8EABFCBD4D7D4E89424F824FEF6
:100BE600FECFE0EEF1E000D4E1EEF1E0FDD3A2EEBF
:100BF600B1E0CADAE3EEF1E0F7D3E4EEF1E0F4D3E4
:100C0600A5EEB1E0CEDAE6EDF1E0EED3A2EDB1E08D
:100C1600F4DB1ADD62DD5FDEE093DA01F093DB01DF
:100C26006093DC017093DD01A1E0AAD4E0E4E7B9AA
:100C3600E5E8E6B9A0E059DEE093DE01F093DF01D6
:100C4600E0E0E7B9E6B9E89420F8E7E0EEBD9CD429
:100C5600E0E0EBBDEABDE9BF7ED4E5BFE0E0EABF78
:100C6600E0E4F0E0C1D3E091E00193D4E091E1014A
:100C760090D4E091D001F091D10190D4E091D601C9
:100C8600F091D7016091D8017091D90181D5F7D340
:100C960000D8E091D201F091D3016091D401709116
:100CA600D50176D5ECD3F5D7E091DE01F091DF01E1
:100CB60075D4E091DA01F091DB016091DC0170916D
:100CC600DD01E7D7E091E30164D4E091E40161D46A
:100CD600E091E5015ED4E091CC01F091CD015ED4C6
:100CE6008CE2A1D2AE96E0E0E093CC01E093CD0198
:100CF60049D41F5F06C1E530A0E0FA07B9F4E091D8
:100D0600E601EA93E091E701EA93A091E8012FDA80
:100D1600E091E901EA93E091EA01EA93A091EB01FF
:100D26004CDA12D4E89425F82DD4EBC0E630A0E0D6
:100D3600FA0759F536D441D443D430FC02C047D41F
:100D460008F001C0FACF47D4E091F101F091F20129
:100D56006091F3017091F4011BD54ED4A091FB0173
:100D6600B091FC01119718F4E1E0F0E045D4E6E813
:100D7600F0E03AD3E091FB01F091FC010FD441D4AD
:100D86001CD4E89427F8FED3BCC0E730A0E0FA07ED
:100D960009F038C006D414D430FC02C018D408F0C8
:100DA60001C0FACF18D4A091F101B091F20180915F
:100DB600F3019091F401E0E0F0E06AE774E4F7D51E
:100DC600A0E0B0E080E092E4F2D5E093F501F09384
:100DD600F6016093F7017093F801DAD4E093FD0110
:100DE600F093FE01ECE8F0E0FFD2E091FD01F09116
:100DF600FE01D4D306D4E0E1E9BFDFD3E89431F8AD
:100E0600C1D37FC0E830A0E0FA0709F041C0C9D3DA
:100E1600E0E0E093EE01E093CA01A091CA01AB3095
:100E2600E0F4CED330FC06C0D2D318F0689423F891
:100E360001C0F8CF23FE03C0E89423F805C0E09173
:100E4600EE01EF5FE093EE01B8D3E0E096D3E091D8
:100E5600CA01EF5FE093CA01E0CFA091EE01EAE09C
:100E6600EA9FF001E093F901F093FA01E2E9F0E07C
:100E7600BBD2E091F901F091FA0190D3C2D3E0E13F
:100E8600E9BF9BD3E89432F8E0E058D37BD339C06E
:100E960069D261F4E8E9F0E0BAD3A4E671D321FEA1
:100EA60004C0E89422F821F86DD32BC0E330A0E00B
:100EB600FA0799F4E091EC01EA93A091ED0148D983
:100EC600EBE9F0E0A4D39798E89426F844D3EABF78
:100ED600E0E0E5BFE4E042D314C0E430A0E0FA0766
:100EE60031F4E0E4EBBFEABFD3D1DAD10AC0E9308E
:100EF600A0E0FA0731F4EEE9F0E089D3A4EFB1E01F
:100F06000ED42BCEFFCFAA935D9BFECFE881ECB922
:100F16002196089500D2AA81F6DFA881B98121D34E
:100F260023960895F8D12C97CAD610E0AA89BB89D2
:100F3600E0E0F0E0ED93FC93E88DF98D3196E88FD3
:100F4600F98F3197E4912E2FE03009F466C1E12F35
:100F5600E03031F4253211F411E001C05DD35CC1FB
:100F6600E130B9F4253211F457D355C112E0E0E06F
:100F7600E98B00E02D3211F401E04EC12B3219F459
:100F8600EBE2E98B49C1203219F4E0E2E98B44C176
:100F960002C0E23039F450E013E0203311F4006867
:100FA6003BC102C0E33091F4203310F02A3308F03D
:100FB60007C0AAE05A9F502DE22FE0535E0F2CC1C6
:100FC60040E02E3211F414E027C10EC0E43091F453
:100FD600203310F02A3308F007C0AAE04A9F402DBC
:100FE600E22FE0534E0F18C12C3619F4026015E0BB
:100FF60013C103C0E53009F00FC1E22FE33639F41F
:1010060012D314D310D3A481AA9314D304C1E33703
:1010160029F416D317D34CD11E2F07C0E03789F415
:101026000FD310D350D11E2F08600F77403011F028
:10103600411708F001C0142F40E0E0E0E88B30E0F3
:1010460061C0E43611F0E93611F4046002C0E537F8
:1010560091F4EAE0E88B01FF07C0E0E0FAEC6AE908
:101066007BE39CD11AE01FC0E0E1F7E260E070E0AC
:1010760095D115E018C0E83511F4086003C0E837CB
:1010860009F0C9C0E0E1E88B01FF07C0E0E0F0E04D
:1010960060E070E183D118E006C0E0E0F0E160E0D6
:1010A60070E07CD114E0403011F00F7701C041E0D0
:1010B60001FF04C0C5D2CFD2D7D50BC002FF05C0F1
:1010C600BFD2C9D2CDD5DBD104C0BAD2C4D2C8D51D
:1010D600BCD1EC87FD876E877F8702FF12C0AF8584
:1010E600AA2342F4EC85FD856E857F85E6D4B7D2CA
:1010F600EDE2E98BE989E03019F01F5F4F5F01C02F
:101106000B7F342F00FD13C0151710F4351708F0A8
:101116000EC007FF08C002FF04C00B7F29891150CB
:1011260001C020E301C020E277D25150EDCF141761
:1011360088F4006102FF06C097D2503009F0515082
:1011460011504150E0E3EA9375D2503009F0515006
:101156004150EDCF312FE889E030B1F4303099F0CD
:1011660003FF06C0EE81FF812591EE83FF8305C054
:10117600AE81BF812D91AE83BF834ED2503009F030
:1011860051503150EBCF3EC073D21BD52E2F2A3093
:1011960030F003FF02C0295C01C0295A01C0205D5E
:1011A60004FD1EC0213348F400D1A130E0E0BE07A3
:1011B600E0E08E07E0E09E0709F40BC0431740F419
:1011C600531710F000FF01C00FC020E207FF08C050
:1011D60020E3006102FF04C047D2503009F05150AD
:1011E6001BD2503009F05150315042D214D537D26B
:1011F600E889DBD0FF2766277727E3D4CFD0FBD05B
:101206005AD511F600FF07C0503029F05150E0E2E0
:10121600EA9310D2F9CF10E08FCEAA89BB8920D5E8
:1012260055D56A960895FF92F82E26974CD5DE017D
:10123600149622D48D01E0E0EC83ED83EE83EF83F8
:10124600DE01189619D40CD5CFD01A930A93EDE87F
:10125600F7E0CAD0DE01189665DE3CD52896FF90E9
:101266000895AA93E881E295EF70AE2FAA0FAA0F10
:10127600EA0FEE0FA991AF70EA0F0895AA93A9910C
:10128600EE27AA5012F0E05FFCCFA65FEA0F0895A2
:10129600E5B7E068E5BF0895E5B7EF77E5BF0895E0
:1012A600E5B7EF78E5BFEFB778948895EFBF089577
:1012B60032D0A991B991EE27FF276D91662311F0DF
:1012C6003196FBCF089527D0AA27BB27E991F9913C
:1012D6000590002011F01196FBCFFD010895D3D1A2
:1012E600A0ED05C204D2A881C9CFAE2F00C2FFD19E
:1012F600CAD1A1EDFCD1A1E0DFD1AE2FB2CFEC93E4
:10130600A1E0DAD1AE2FADDFAA81BB81EC93A0E0DC
:10131600D3D1AE2FA6CFBA93AA930895AB9A81E004
:101326008A95F1F70895A12FB0E0E2E0F0E044D409
:101336001E2F089581E08A95F1F7AB980895AB9832
:1013460081E08A95F1F70895A1E061C720E030E0D9
:101356000895EC81F0E0309708953DD7F0E00E0F48
:101366001F1F0895E130A0E0FA0708952E2F3327B6
:101376000895EA2BFB2B0895E0916201F091630139
:101386000895AAE0B7ED83E29CE30895DF01CB015F
:101396000895EE85FF85688979890895E887F98734
:1013A6006A877B8708956BD40895A885B9858A8551
:1013B6009B850895EC83FD836E837F830895AC81BE
:1013C600BD818E819F810895E0E0F0E068EC72E4D3
:1013D6000895EDECFCEC6CEC7DE308954BD4EC81C8
:1013E600FD816E817F810895FA93EA9308956627B9
:1013F600772705D20895E885F9856A857B8508955E
:1014060042D1AEEE74C173D13ED1AFEE70D1A1E040
:1014160053C1F0E00895A1E04FD1FBCF68D142D18E
:10142600A5E0B0E07CD1ECCF1E2FA0E045D10E2F79
:1014360039D1E12FEEDF7ED3A9DFE8E046D3A6DF80
:10144600E02FE7DF77D330D308956627772708950F
:101456009BD39CCF46D3E0937001F09371016093C8
:1014660072017093730108956AD30895A091700173
:10147600B0917101809172019091730108955AD3D0
:101486000895E0937401F09375016093760170936B
:101496007701ECDFF5D20895E0918401F0918501A2
:1014A60060918601709187010895A0918401B091A1
:1014B600850180918601909187010895E0938001CE
:1014C600F093810160938201709383010895EE5F2A
:1014D600FF4F6F4F7F4F1DD31CD30895A0918801F6
:1014E600B091890180918A0190918B010895E091D4
:1014F6008C01F0918D0160918E0170918F0108959C
:10150600AA81BB818C819D81E8E0EBD20895E093AE
:101516007001F093710160937201709373010895E5
:101526000A921A92FA926A937A938A939A93AA9350
:10153600BA93EA93FA93EFB7EA930895E093C80152
:101546000895FCDF68940895ECE3F0E04DDF80E059
:101556006ADE22960895E0E0EBBF0895E093C901A4
:101566000895ED91FD913196FE93EE930895E0E096
:10157600E093CE01E093CF010895E093CB01089567
:10158600B0E0CDC0E0E0EACFE0E0F0E0FDBDECBDCC
:101596000895FF27662777277CD3089556DF79D3EA
:1015A6000895E0E0E093EF01E093F001E1E0EEBDA5
:1015B600E4E0E9BFE0E0E1DFE7CFE89430F8089542
:1015C600E5E6F0E011DF80E02EDE22960895A09198
:1015D600CB01AA370895ECB5FDB509DFAFE6B2E158
:1015E60083E899E396D1E093F101F093F2016093D9
:1015F600F3017093F4010895E093FB01F093FC016D
:10160600089584E010DE2696EBE0EEBD0895ECDE4C
:1016160080E009DE229608952A93AB89BC89ED897C
:10162600FE8909950895EE89FF8908953497EE8B12
:10163600FF8B0895AB89BC89ED89FE8909950895CC
:10164600F2DFF4CFAE89BF8914960AD3EE83FF8307
:10165600AE81BF810895AE89BF8914960895EC873F
:10166600FD876E877F8708950B7FE989EA93E2CF2E
:10167600C2DEAC85BD858E859F850895AD98AC98F4
:10168600A59AA49815C0A498A598EE2700009C9B3F
:1016960008959D9B089504D0A49A02D0A59AE1E0EE
:1016A60063E007C0A49AA59A03D0A598F9DFA49889
:1016B60066E06A95F1F7089578E0A598F1DF9D9BBD
:1016C600FECFEEDF88949C990894A59AF1DFEE1F71
:1016D6007A9599F77A2F772311F4A49801C0A49AE2
:1016E600DFDFA598E5DFA59ADBDFA498D9CF78E000
:1016F600AA0F10F4A49801C0A49ADADFA598D0DF47
:101706009D9BFECFCDDFA59A7A9591F7A498C8DF69
:10171600A598CEDFE1E09C99EE27A59AC1CF109659
:1017260039F08DEC91E00197F1F7A8951197C9F77B
:101736000895552342F4503811F4E0FF04C0319661
:10174600691F791F6BF050E8572711F45F93CFC0DC
:101756005F3F31F0660F000C57956795752F08951A
:101766005F9300200AF0CFC0C8C050E8192E15229A
:10177600880F991F9527550F879550E8072E052244
:10178600660F771F7527550F67950895689401C0F2
:10179600E8945F93F2DF703818F07F3F08F4A7C033
:1017A60056E1571BAAF4519558300EF4593030F0D3
:1017B600EFEFFFEF6FEF7FE777F91AC07727552333
:1017C600B9F0EE0FFF1F661F771F5A95D1F710C0AD
:1017D6007727583028F0EF2FF62F672F5850F9CF7C
:1017E600552331F076956795F795E7955A95D1F794
:1017F60000200AF462D15F910895689401C0E894CC
:10180600309760407040B1F0002426F0772312F440
:10181600009453D1172E7EE1112032F07A95EE0F07
:10182600FF1F661F111CF9CFEF2FF62F612D5F9357
:101836008ADF5F9108954F93AF01FD01DA01AB0195
:10184600BC01CA01402D012C142E4F910895EA0FB8
:10185600FB1F681F0895E095F0956095EF5FFF4FB9
:101866006F4F08955F9381DF903871F150E8152628
:1018760004C05F937ADF903839F1703821F1572F21
:10188600591B2BF112F4D7DFFACF583118F0AA27DB
:10189600BB278827583028F0AB2FB82F88275850F9
:1018A600F9CF552329F08695B795A7955A95D9F777
:1018B600502D512572F0CBDF38F46795F795E795F3
:1018C600739513F420C0B7DF3EDF5F910895D8F714
:1018D600FBCFEA1BFB0B680B51F010F40094BBDF47
:1018E600662392F3EE0FFF1F661F7A95CBF7EE275E
:1018F600FF27662777275F910895EFEFFFEF6FE7E2
:101906007FEF5F910895EFEFFFEF6FE77FE75F915E
:1019160008955F932ADF703851F3903841F301241C
:101926000894791F23F41CF300203AF3ECCF0F92AE
:101936001F932F933F934F93112722279927689F31
:10194600A0018F9F302D410D591F6B9F300D411DFA
:10195600591F8E9F27D0BF9F25D06A9F23D0BE9F39
:101966001DD0AF9F1BD0AE9F110D291F391F491FD8
:10197600591FE32FF42F652F522F4F913F912F912F
:101986001F910F9066232AF0550FEE1FFF1F661F4B
:1019960002C073954BF2CDDE5F910895100D211DA7
:1019A600391F02C0200D311D491F591F08955F932D
:1019B600DCDE703821F411200AF49FCFA4CF9038D2
:1019C60009F495CF01240894970B1BF4D4F3002057
:1019D600F3CF792F1F932F933F934F931124112702
:1019E600222733274427552790E2AE17BF078607DD
:1019F600410730F0AE1BBF0B860B410B089401C0AC
:101A06008894551F221F331F111CAA1FBB1F881F36
:101A1600441F9A9551F7F901612D4F913F912F91EE
:101A26001F91662332F0550FEE1FFF1F661F7A9532
:101A360043F27FDE5F91089599239AF0772342F06F
:101A4600971748F029F4AE17BF07860720F031F044
:101A5600989488940895989408940895189488946E
:101A660008957723C2F7971798F3A9F7EA17FB07A4
:101A7600680788F399F3ECCF0024AF0DB01D0895E5
:101A8600EA0FFB1F681F791F0895AE0FBF1F861F41
:101A9600971F0895EA1BFB0B680B790B0895AE1B85
:101AA600BF0B860B970B0895EA2BFB2B682B792B24
:101AB6000895F195E195F0400895F095609570953B
:101AC600E195FF4F6F4F7F4F0895EE230E2EFD01D8
:101AD600BC0131F0EE0FFF1F661F771F0A94D1F786
:101AE6000895EE230E2EFD01BC0131F07595679524
:101AF600F795E7950A94D1F70895EE230E2EFD018A
:101B0600BC0131F076956795F795E7950A94D1F77C
:101B1600089575956795F795E7950895EE0FFF1F5C
:101B2600661F771F0895E62FF72F6627F7FD6FEFDD
:101B3600762F08956F2F660F660B762F08958B2FDD
:101B4600880F880B982F08957A9F702D6B9F700DC4
:101B5600F89F700DE99F700D6A9F602D710DFB9FB8
:101B6600600D711DE89F600D711D8827FA9FF02D8D
:101B7600610D781FEB9FF00D611D781FEA9FE02D28
:101B8600F10D681F781F089558D0DEDF0EF495DF3B
:101B960008950024112490E1AA0FBB1F001C111CFC
:101BA6000E1A1F0A18F40E0E1F1E01C0A1609A9588
:101BB60099F7FD01D001089532D0EBDF0EF479DFFD
:101BC60008953F934F935F9300241124442755278C
:101BD60030E2AA0FBB1F881F991F001C111C441F4F
:101BE600551F0E1A1F0A460B570B28F40E0E1F1E02
:101BF600461F571F01C0A1603A9559F7FD01BC0168
:101C0600D001CA015F914F913F91089516D0D9DF57
:101C16000EF453DF0895D5DFFD01BC010895E89465
:101C2600F7FF02C046DF6894B7FF06C0A095B095DF
:101C3600119600F8039400FA0895E89477FF02C01D
:101C46003CDF689497FF0BC00024A095B095809563
:101C560090951196801D901D00F8039400FA089542
:101C6600ED91FC9111970895ED91FD916D917C9107
:101C760013970895ED93FD936D937C930895E881F2
:101C8600F9816A817B810895E883F9836A837B837E
:101C960008957A936A93FA93EA930895182E862FF5
:101CA600612D192E972F712D1B2EBF2FF12D1A2E58
:101CB600AE2FE12D089530976040704008955A93F5
:101CC6004A933A932A931A930A9308955D814C8115
:101CD6003B812A81198108810895099119910895F6
:00000001FF
